:0400000055EF00F0C8
:060008003682A0ED03F0BA
:100018003680D8CF14F0E8CF15F0E0CF16F0FACF3D
:1000280017F0FBCF18F0E9CF19F0EACF1AF0E1CFBB
:100038001BF0E2CF1CF0D9CF1DF0DACF1EF0F3CFC2
:100048001FF0F4CF20F0F6CF21F0F7CF22F0F8CF51
:1000580023F0F5CF24F0F29EF28E24C0F5FF23C0E2
:10006800F8FF22C0F7FF21C0F6FF20C0F4FF1FC031
:10007800F3FF1EC0DAFF1DC0D9FF1CC0E2FF1BC082
:10008800E1FF1AC0EAFF19C0E9FF18C0FBFF17C05B
:10009800FAFF16C0E0FF15C0E8FF14C0D8FF36907D
:0600A800100057EF04F008
:100600000070726F6772616D2073746172740A0D8D
:0F061000007072696E74206C6F6F700A0D0000BD
:10062000000E2D6E000E316E000E306ED388D38A10
:10063000D38C030ED312D3A4FED7000E266E330E36
:10064000256E000E286E000E276E000E2A6E010E1B
:10065000296E000E2C6E000E2B6E25EC04F0D08E51
:10066000F28EF28C000E256E010E266E010E276EA4
:10067000060E286EEAEC03F0000E266E010E276EC1
:100680000AEC04F03450D8B41DD0780E3518D8B424
:1006900005D035C025F030506CEC04F00D0E89EC1F
:1006A00004F0304A312A3104D8A004D0000E316E53
:1006B000000E306E780E3518D8A402D0010E2D6EC3
:1006C000000E346E2D50D8B4DDD7000E256E010E0D
:1006D000266E110E276E060E286EEAEC03F0000E51
:1006E000266E010E276E0AEC04F0000E2E6E000E30
:1006F000336E000E326E3304D8B0C4D732507FEC64
:1007000004F02F6E2F50D8A403D0B20E89EC04F061
:100710002F28D8A403D0200E89EC04F02E2A100E26
:100720002E18D8A408D00A0E89EC04F00D0E89EC1E
:1007300004F0000E2E6E000E2D6E324A332ADBD7E7
:100740000600FACF06F0FBCF07F0E9CF08F0EACFBA
:1007500009F0E1CF0AF0E2CF0BF0D9CF0CF0DACFFD
:100760000DF0F3CF0EF0F4CF0FF0F6CF10F0F7CF7F
:1007700011F0F8CF12F0F5CF13F0F29E9EAA0BD035
:10078000350E016E000E026E340E036E000E046E06
:1007900040EC04F09E9AF28E13C0F5FF12C0F8FFF1
:1007A00011C0F7FF10C0F6FF0FC0F4FF0EC0F3FF3B
:1007B0000DC0DAFF0CC0D9FF0BC0E2FF0AC0E1FF99
:1007C00009C0EAFF08C0E9FF07C0FBFF06C0FAFF47
:1007D00036921100290E296E000E2A6E08D025C00F
:1007E000D9FF26C0DAFF2BC0DFFF254A262A27C003
:1007F000F6FF28C0F7FF274A282A0800F5CF2BF07C
:100800002B50D8A4ECD725C0D9FF26C0DAFF000EA4
:10081000DF6E1200000E286E0CD02850010DF35030
:100820002624D96EF4502720DA6EDF5089EC04F0CC
:10083000282A2850010DF3502624D96EF450272081
:10084000DA6EDF50D8B41200E8D7948E948C26501C
:10085000B06E25C0AFFFAB88AB8E2BB002D0B89680
:1008600001D0B88627B002D0AC9801D0AC8829B0AE
:1008700002D0AC9401D0AC84AC8A9F8A9D8A1200CD
:10088000ABA403D0AECF05F01200ABA203D0AB985F
:10089000AB88120001C0D9FF02C0DAFFAECFDFFF84
:1008A00003C0D9FF04C0DAFF010EDF6E120001EEB3
:1008B00000F011EE00F0EE6AE550E150FCE1E2508C
:1008C000FAE1356A346A36903692000EF86E060EFA
:1008D000F76E000110EF03F0266E26C0A9FF25C0B9
:1008E000A8FFA69EA69CA684F29E550EA76EAA0EF1
:1008F000A76EA682A6B2FED7A694F28E1200256E2F
:1009000025C0A9FFA69EA69CA680A6B0FED7A8508B
:100910001200256E25C0ADFF01D000F0ACB2120070
:02092000FCD702
:020000040020DA
:08000000FFFFFFFFFFFFFFFF00
:020000040030CA
:0E000000FF08191EFF8181FF0FC00FE00F40A7
:00000001FF
